{
  "contractName": "ABO",
  "abi": [
    {
      "inputs": [],
      "name": "aboFeeInPercent",
      "outputs": [
        {
          "internalType": "uint256",
          "name": "",
          "type": "uint256"
        }
      ],
      "stateMutability": "view",
      "type": "function",
      "constant": true
    },
    {
      "inputs": [],
      "name": "betterOcean",
      "outputs": [
        {
          "internalType": "address",
          "name": "",
          "type": "address"
        }
      ],
      "stateMutability": "view",
      "type": "function",
      "constant": true
    },
    {
      "inputs": [
        {
          "internalType": "uint256",
          "name": "",
          "type": "uint256"
        }
      ],
      "name": "eventIdToNgoEvent",
      "outputs": [
        {
          "internalType": "uint256",
          "name": "eventID",
          "type": "uint256"
        },
        {
          "internalType": "uint256",
          "name": "projectID",
          "type": "uint256"
        },
        {
          "internalType": "address",
          "name": "ngoAddress",
          "type": "address"
        },
        {
          "internalType": "string",
          "name": "urlToRealLiveData",
          "type": "string"
        }
      ],
      "stateMutability": "view",
      "type": "function",
      "constant": true
    },
    {
      "inputs": [],
      "name": "nextEventId",
      "outputs": [
        {
          "internalType": "uint256",
          "name": "",
          "type": "uint256"
        }
      ],
      "stateMutability": "view",
      "type": "function",
      "constant": true
    },
    {
      "inputs": [],
      "name": "nextProjectId",
      "outputs": [
        {
          "internalType": "uint256",
          "name": "",
          "type": "uint256"
        }
      ],
      "stateMutability": "view",
      "type": "function",
      "constant": true
    },
    {
      "inputs": [
        {
          "internalType": "address",
          "name": "",
          "type": "address"
        }
      ],
      "name": "ngoWallets",
      "outputs": [
        {
          "internalType": "bool",
          "name": "",
          "type": "bool"
        }
      ],
      "stateMutability": "view",
      "type": "function",
      "constant": true
    },
    {
      "inputs": [
        {
          "internalType": "uint256",
          "name": "",
          "type": "uint256"
        }
      ],
      "name": "projectIdToContract",
      "outputs": [
        {
          "internalType": "uint256",
          "name": "projectID",
          "type": "uint256"
        },
        {
          "internalType": "address",
          "name": "ngoAddress",
          "type": "address"
        },
        {
          "internalType": "address",
          "name": "donorAddress",
          "type": "address"
        },
        {
          "internalType": "uint256",
          "name": "donation",
          "type": "uint256"
        },
        {
          "internalType": "string",
          "name": "pointer",
          "type": "string"
        }
      ],
      "stateMutability": "view",
      "type": "function",
      "constant": true
    },
    {
      "inputs": [
        {
          "internalType": "address",
          "name": "_ngoAddress",
          "type": "address"
        }
      ],
      "name": "whitelistNgo",
      "outputs": [],
      "stateMutability": "nonpayable",
      "type": "function"
    },
    {
      "inputs": [
        {
          "internalType": "uint256",
          "name": "_donation",
          "type": "uint256"
        },
        {
          "internalType": "string",
          "name": "_pointer",
          "type": "string"
        }
      ],
      "name": "createContract",
      "outputs": [],
      "stateMutability": "nonpayable",
      "type": "function"
    },
    {
      "inputs": [],
      "name": "getContracts",
      "outputs": [
        {
          "components": [
            {
              "internalType": "uint256",
              "name": "projectID",
              "type": "uint256"
            },
            {
              "internalType": "address",
              "name": "ngoAddress",
              "type": "address"
            },
            {
              "internalType": "address",
              "name": "donorAddress",
              "type": "address"
            },
            {
              "internalType": "uint256",
              "name": "donation",
              "type": "uint256"
            },
            {
              "internalType": "string",
              "name": "pointer",
              "type": "string"
            }
          ],
          "internalType": "struct ABO.abo_contract[]",
          "name": "",
          "type": "tuple[]"
        }
      ],
      "stateMutability": "view",
      "type": "function",
      "constant": true
    },
    {
      "inputs": [
        {
          "internalType": "uint256",
          "name": "_projectId",
          "type": "uint256"
        }
      ],
      "name": "donate",
      "outputs": [],
      "stateMutability": "payable",
      "type": "function",
      "payable": true
    },
    {
      "inputs": [
        {
          "internalType": "uint256",
          "name": "_projectId",
          "type": "uint256"
        },
        {
          "internalType": "string",
          "name": "_pointerToRealLiveData",
          "type": "string"
        }
      ],
      "name": "logNgoEvent",
      "outputs": [],
      "stateMutability": "nonpayable",
      "type": "function"
    },
    {
      "inputs": [],
      "name": "getNgoEvents",
      "outputs": [
        {
          "components": [
            {
              "internalType": "uint256",
              "name": "eventID",
              "type": "uint256"
            },
            {
              "internalType": "uint256",
              "name": "projectID",
              "type": "uint256"
            },
            {
              "internalType": "address",
              "name": "ngoAddress",
              "type": "address"
            },
            {
              "internalType": "string",
              "name": "urlToRealLiveData",
              "type": "string"
            }
          ],
          "internalType": "struct ABO.ngoEvent[]",
          "name": "",
          "type": "tuple[]"
        }
      ],
      "stateMutability": "view",
      "type": "function",
      "constant": true
    }
  ],
  "bytecode": "0x60806040527386d15b422d924d9115986dd7a87ee794caf2cbaf6000806101000a81548173ffffffffffffffffffffffffffffffffffffffff021916908373ffffffffffffffffffffffffffffffffffffffff16021790555060006004556000600555600260065534801561007357600080fd5b5061191e806100836000396000f3fe6080604052600436106100c25760003560e01c8063a2b78ef01161007f578063c3a2a93a11610059578063c3a2a93a14610281578063e935b7b1146102ac578063e9966f82146102d7578063f14faf6f14610302576100c2565b8063a2b78ef0146101ed578063acb5c6cd14610218578063bc92088614610258576100c2565b806316071018146100c757806378d796d614610108578063937af34c146101455780639e71ff601461016e5780639f9d903a14610197578063a1263d8f146101c2575b600080fd5b3480156100d357600080fd5b506100ee60048036038101906100e99190611054565b61031e565b6040516100ff95949392919061141a565b60405180910390f35b34801561011457600080fd5b5061012f600480360381019061012a9190611027565b61041c565b60405161013c91906113e4565b60405180910390f35b34801561015157600080fd5b5061016c60048036038101906101679190611081565b61043c565b005b34801561017a57600080fd5b5061019560048036038101906101909190611027565b610577565b005b3480156101a357600080fd5b506101ac610629565b6040516101b991906113ff565b60405180910390f35b3480156101ce57600080fd5b506101d761062f565b6040516101e49190611385565b60405180910390f35b3480156101f957600080fd5b50610202610653565b60405161020f91906113ff565b60405180910390f35b34801561022457600080fd5b5061023f600480360381019061023a9190611054565b610659565b60405161024f9493929190611474565b60405180910390f35b34801561026457600080fd5b5061027f600480360381019061027a9190611081565b610731565b005b34801561028d57600080fd5b506102966108d0565b6040516102a391906113a0565b60405180910390f35b3480156102b857600080fd5b506102c1610ae2565b6040516102ce91906113ff565b60405180910390f35b3480156102e357600080fd5b506102ec610ae8565b6040516102f991906113c2565b60405180910390f35b61031c60048036038101906103179190611054565b610ca4565b005b60026020528060005260406000206000915090508060000154908060010160009054906101000a900473ffffffffffffffffffffffffffffffffffffffff16908060020160009054906101000a900473ffffffffffffffffffffffffffffffffffffffff1690806003015490806004018054610399906116fe565b80601f01602080910402602001604051908101604052809291908181526020018280546103c5906116fe565b80156104125780601f106103e757610100808354040283529160200191610412565b820191906000526020600020905b8154815290600101906020018083116103f557829003601f168201915b5050505050905085565b60016020528060005260406000206000915054906101000a900460ff1681565b600160003373ffffffffffffffffffffffffffffffffffffffff1673ffffffffffffffffffffffffffffffffffffffff16815260200190815260200160002060009054906101000a900460ff1661049257600080fd5b6000600560008154809291906104a790611761565b91905055905060405180608001604052808281526020018481526020013373ffffffffffffffffffffffffffffffffffffffff1681526020018381525060036000838152602001908152602001600020600082015181600001556020820151816001015560408201518160020160006101000a81548173ffffffffffffffffffffffffffffffffffffffff021916908373ffffffffffffffffffffffffffffffffffffffff160217905550606082015181600301908051906020019061056e929190610e51565b50905050505050565b60008054906101000a900473ffffffffffffffffffffffffffffffffffffffff1673ffffffffffffffffffffffffffffffffffffffff163373ffffffffffffffffffffffffffffffffffffffff16146105cf57600080fd5b60018060008373ffffffffffffffffffffffffffffffffffffffff1673ffffffffffffffffffffffffffffffffffffffff16815260200190815260200160002060006101000a81548160ff02191690831515021790555050565b60055481565b60008054906101000a900473ffffffffffffffffffffffffffffffffffffffff1681565b60065481565b60036020528060005260406000206000915090508060000154908060010154908060020160009054906101000a900473ffffffffffffffffffffffffffffffffffffffff16908060030180546106ae906116fe565b80601f01602080910402602001604051908101604052809291908181526020018280546106da906116fe565b80156107275780601f106106fc57610100808354040283529160200191610727565b820191906000526020600020905b81548152906001019060200180831161070a57829003601f168201915b5050505050905084565b600160003373ffffffffffffffffffffffffffffffffffffffff1673ffffffffffffffffffffffffffffffffffffffff16815260200190815260200160002060009054906101000a900460ff1661078757600080fd5b60006004600081548092919061079c90611761565b9190505590506040518060a001604052808281526020013373ffffffffffffffffffffffffffffffffffffffff168152602001600073ffffffffffffffffffffffffffffffffffffffff16815260200184815260200183815250600260008381526020019081526020016000206000820151816000015560208201518160010160006101000a81548173ffffffffffffffffffffffffffffffffffffffff021916908373ffffffffffffffffffffffffffffffffffffffff16021790555060408201518160020160006101000a81548173ffffffffffffffffffffffffffffffffffffffff021916908373ffffffffffffffffffffffffffffffffffffffff1602179055506060820151816003015560808201518160040190805190602001906108c7929190610e51565b50905050505050565b6060600060045467ffffffffffffffff8111156108f0576108ef611866565b5b60405190808252806020026020018201604052801561092957816020015b610916610ed7565b81526020019060019003908161090e5790505b50905060005b600454811015610ada57600260008281526020019081526020016000206040518060a0016040529081600082015481526020016001820160009054906101000a900473ffffffffffffffffffffffffffffffffffffffff1673ffffffffffffffffffffffffffffffffffffffff1673ffffffffffffffffffffffffffffffffffffffff1681526020016002820160009054906101000a900473ffffffffffffffffffffffffffffffffffffffff1673ffffffffffffffffffffffffffffffffffffffff1673ffffffffffffffffffffffffffffffffffffffff16815260200160038201548152602001600482018054610a27906116fe565b80601f0160208091040260200160405190810160405280929190818152602001828054610a53906116fe565b8015610aa05780601f10610a7557610100808354040283529160200191610aa0565b820191906000526020600020905b815481529060010190602001808311610a8357829003601f168201915b505050505081525050828281518110610abc57610abb611837565b5b60200260200101819052508080610ad290611761565b91505061092f565b508091505090565b60045481565b6060600060055467ffffffffffffffff811115610b0857610b07611866565b5b604051908082528060200260200182016040528015610b4157816020015b610b2e610f32565b815260200190600190039081610b265790505b50905060005b600554811015610c9c576003600082815260200190815260200160002060405180608001604052908160008201548152602001600182015481526020016002820160009054906101000a900473ffffffffffffffffffffffffffffffffffffffff1673ffffffffffffffffffffffffffffffffffffffff1673ffffffffffffffffffffffffffffffffffffffff168152602001600382018054610be9906116fe565b80601f0160208091040260200160405190810160405280929190818152602001828054610c15906116fe565b8015610c625780601f10610c3757610100808354040283529160200191610c62565b820191906000526020600020905b815481529060010190602001808311610c4557829003601f168201915b505050505081525050828281518110610c7e57610c7d611837565b5b60200260200101819052508080610c9490611761565b915050610b47565b508091505090565b670de0b6b3a76400006002600083815260200190815260200160002060030154610cce91906115e6565b3414610cd957600080fd5b6000606460065434610ceb91906115e6565b610cf591906115b5565b905060008134610d059190611640565b905060006002600085815260200190815260200160002060010160009054906101000a900473ffffffffffffffffffffffffffffffffffffffff1690508073ffffffffffffffffffffffffffffffffffffffff166108fc839081150290604051600060405180830381858888f19350505050158015610d88573d6000803e3d6000fd5b5060008054906101000a900473ffffffffffffffffffffffffffffffffffffffff1673ffffffffffffffffffffffffffffffffffffffff166108fc849081150290604051600060405180830381858888f19350505050158015610def573d6000803e3d6000fd5b506000600260008681526020019081526020016000209050338160020160006101000a81548173ffffffffffffffffffffffffffffffffffffffff021916908373ffffffffffffffffffffffffffffffffffffffff1602179055505050505050565b828054610e5d906116fe565b90600052602060002090601f016020900481019282610e7f5760008555610ec6565b82601f10610e9857805160ff1916838001178555610ec6565b82800160010185558215610ec6579182015b82811115610ec5578251825591602001919060010190610eaa565b5b509050610ed39190610f70565b5090565b6040518060a0016040528060008152602001600073ffffffffffffffffffffffffffffffffffffffff168152602001600073ffffffffffffffffffffffffffffffffffffffff16815260200160008152602001606081525090565b60405180608001604052806000815260200160008152602001600073ffffffffffffffffffffffffffffffffffffffff168152602001606081525090565b5b80821115610f89576000816000905550600101610f71565b5090565b6000610fa0610f9b846114e5565b6114c0565b905082815260208101848484011115610fbc57610fbb61189a565b5b610fc78482856116bc565b509392505050565b600081359050610fde816118ba565b92915050565b600082601f830112610ff957610ff8611895565b5b8135611009848260208601610f8d565b91505092915050565b600081359050611021816118d1565b92915050565b60006020828403121561103d5761103c6118a4565b5b600061104b84828501610fcf565b91505092915050565b60006020828403121561106a576110696118a4565b5b600061107884828501611012565b91505092915050565b60008060408385031215611098576110976118a4565b5b60006110a685828601611012565b925050602083013567ffffffffffffffff8111156110c7576110c661189f565b5b6110d385828601610fe4565b9150509250929050565b60006110e9838361128e565b905092915050565b60006110fd8383611304565b905092915050565b61110e81611674565b82525050565b61111d81611674565b82525050565b600061112e82611536565b6111388185611571565b93508360208202850161114a85611516565b8060005b85811015611186578484038952815161116785826110dd565b945061117283611557565b925060208a0199505060018101905061114e565b50829750879550505050505092915050565b60006111a382611541565b6111ad8185611582565b9350836020820285016111bf85611526565b8060005b858110156111fb57848403895281516111dc85826110f1565b94506111e783611564565b925060208a019950506001810190506111c3565b50829750879550505050505092915050565b61121681611686565b82525050565b60006112278261154c565b6112318185611593565b93506112418185602086016116cb565b61124a816118a9565b840191505092915050565b60006112608261154c565b61126a81856115a4565b935061127a8185602086016116cb565b611283816118a9565b840191505092915050565b600060a0830160008301516112a66000860182611367565b5060208301516112b96020860182611105565b5060408301516112cc6040860182611105565b5060608301516112df6060860182611367565b50608083015184820360808601526112f7828261121c565b9150508091505092915050565b600060808301600083015161131c6000860182611367565b50602083015161132f6020860182611367565b5060408301516113426040860182611105565b506060830151848203606086015261135a828261121c565b9150508091505092915050565b611370816116b2565b82525050565b61137f816116b2565b82525050565b600060208201905061139a6000830184611114565b92915050565b600060208201905081810360008301526113ba8184611123565b905092915050565b600060208201905081810360008301526113dc8184611198565b905092915050565b60006020820190506113f9600083018461120d565b92915050565b60006020820190506114146000830184611376565b92915050565b600060a08201905061142f6000830188611376565b61143c6020830187611114565b6114496040830186611114565b6114566060830185611376565b81810360808301526114688184611255565b90509695505050505050565b60006080820190506114896000830187611376565b6114966020830186611376565b6114a36040830185611114565b81810360608301526114b58184611255565b905095945050505050565b60006114ca6114db565b90506114d68282611730565b919050565b6000604051905090565b600067ffffffffffffffff821115611500576114ff611866565b5b611509826118a9565b9050602081019050919050565b6000819050602082019050919050565b6000819050602082019050919050565b600081519050919050565b600081519050919050565b600081519050919050565b6000602082019050919050565b6000602082019050919050565b600082825260208201905092915050565b600082825260208201905092915050565b600082825260208201905092915050565b600082825260208201905092915050565b60006115c0826116b2565b91506115cb836116b2565b9250826115db576115da6117d9565b5b828204905092915050565b60006115f1826116b2565b91506115fc836116b2565b9250817fffffffffffffffffffffffffffffffffffffffffffffffffffffffffffffffff0483118215151615611635576116346117aa565b5b828202905092915050565b600061164b826116b2565b9150611656836116b2565b925082821015611669576116686117aa565b5b828203905092915050565b600061167f82611692565b9050919050565b60008115159050919050565b600073ffffffffffffffffffffffffffffffffffffffff82169050919050565b6000819050919050565b82818337600083830152505050565b60005b838110156116e95780820151818401526020810190506116ce565b838111156116f8576000848401525b50505050565b6000600282049050600182168061171657607f821691505b6020821081141561172a57611729611808565b5b50919050565b611739826118a9565b810181811067ffffffffffffffff8211171561175857611757611866565b5b80604052505050565b600061176c826116b2565b91507fffffffffffffffffffffffffffffffffffffffffffffffffffffffffffffffff82141561179f5761179e6117aa565b5b600182019050919050565b7f4e487b7100000000000000000000000000000000000000000000000000000000600052601160045260246000fd5b7f4e487b7100000000000000000000000000000000000000000000000000000000600052601260045260246000fd5b7f4e487b7100000000000000000000000000000000000000000000000000000000600052602260045260246000fd5b7f4e487b7100000000000000000000000000000000000000000000000000000000600052603260045260246000fd5b7f4e487b7100000000000000000000000000000000000000000000000000000000600052604160045260246000fd5b600080fd5b600080fd5b600080fd5b600080fd5b6000601f19601f8301169050919050565b6118c381611674565b81146118ce57600080fd5b50565b6118da816116b2565b81146118e557600080fd5b5056fea2646970667358221220b74258cef1ba84739eb6c1ac6cf37cc69dc2c603c863fe4a0597600d247b13b164736f6c63430008070033",
  "immutableReferences": {},
  "source": "// SPDX-License-Identifier: GPL-3.0\n// Solidity program to demonstrate\n// how to create a contract\npragma solidity >=0.7.0 <0.9.0;\npragma abicoder v2;\n\n\n// Creating a contract\ncontract ABO {\t\n    // Declaring variable\n    address public betterOcean = 0x86D15B422D924D9115986Dd7A87ee794CAF2cbaF;\n    mapping (address => bool) public ngoWallets;\n    mapping (uint => abo_contract) public projectIdToContract;\n    mapping (uint => ngoEvent) public eventIdToNgoEvent;\n    uint public nextProjectId = 0;\n    uint public nextEventId = 0;\n    uint public aboFeeInPercent = 2;\n\n\n    struct abo_contract{\n        uint projectID;\n        address ngoAddress;\n        address donorAddress;\n        uint donation;\n        string pointer;\n        //bool paid;\n        //string label;\n    }\n\n    struct ngoEvent{\n        uint eventID;\n        uint projectID;\n        address ngoAddress;\n        //uint cost;\n        string urlToRealLiveData;\n    }\n\n    // abo_contract[] public abo_contracts;\n\n    modifier isBetterOcean() {\n        require(msg.sender == betterOcean);\n        _;\n    }\n\n    modifier isValidNgo() {\n        require(ngoWallets[msg.sender]);\n        _;\n    }\n\n    function whitelistNgo(address _ngoAddress) isBetterOcean public {\n        ngoWallets[_ngoAddress] = true;\n    }\n\n    function createContract(uint _donation, string memory _pointer) isValidNgo public {\n        uint projectId = nextProjectId++;\n        projectIdToContract[projectId] = abo_contract(projectId, msg.sender, address(0), _donation, _pointer);\n    }\n\n    function getContracts() public view returns (abo_contract[] memory) {\n        abo_contract [] memory memoryArray = new abo_contract[](nextProjectId);\n        for(uint i = 0; i < nextProjectId; i++) {\n            memoryArray[i] = projectIdToContract[i];\n        }\n        return memoryArray;\n    }\n\n    function donate(uint _projectId) public payable{\n        require(msg.value == projectIdToContract[_projectId].donation * (1 ether));        \n        uint aboFee = msg.value * aboFeeInPercent / 100; \n        uint ngoAmount = msg.value - aboFee; \n        // make a payment to NGO\n        address ngoAddress  = projectIdToContract[_projectId].ngoAddress;\n        payable(ngoAddress).transfer(ngoAmount);\n        // make a payment ABO\n        payable(betterOcean).transfer(aboFee);\n        abo_contract storage myContract = projectIdToContract[_projectId];\n        myContract.donorAddress = msg.sender;\n    } \n\n    function logNgoEvent(uint _projectId, string memory _pointerToRealLiveData) public isValidNgo {\n        uint eventId = nextEventId++;\n        eventIdToNgoEvent[eventId] = ngoEvent(eventId, _projectId, msg.sender, _pointerToRealLiveData);\n\n    }\n\n    function getNgoEvents() public view returns (ngoEvent[] memory) {\n        ngoEvent [] memory eventLog = new ngoEvent[](nextEventId);\n        for(uint i = 0; i < nextEventId; i++) {\n            eventLog[i] = eventIdToNgoEvent[i];\n        }\n        return eventLog;\n    }\n}",
  "sourcePath": "/Users/kiliansprenkamp/Desktop/OneDrive - Universitat Zurich UZH/uzh/BlockchainSchool/truffle_project/abetterocean/contracts/ABO.sol",
  "compiler": {
    "name": "solc",
    "version": "0.8.7+commit.e28d00a7.Emscripten.clang"
  },
  "schemaVersion": "3.4.4",
  "updatedAt": "2022-01-28T15:13:35.743Z",
  "networkType": "ethereum",
  "devdoc": {
    "kind": "dev",
    "methods": {},
    "version": 1
  },
  "userdoc": {
    "kind": "user",
    "methods": {},
    "version": 1
  }
}